:100000000C9456050C9483050C9483050C9483057D
:100010000C9483050C9483050C9483050C94830540
:100020000C9483050C9483050C9483050C94830530
:100030000C9483050C9483050C9483050C94830520
:100040000C9483050C9483050C9483050C94830510
:100050000C9483050C9483050C9483050C94631B0A
:100060000C9483050C94B40D0C94FB0E0C94830536
:100070000C9483050C9483050C9483050C948305E0
:100080000C9483050C9483050C9483050C948305D0
:100090000C94F30D0C943A0F0C9483050C94B01946
:1000A0000C9483050C9483050C9483050C948305B0
:1000B0000C9483050C9483050C9483050C948305A0
:1000C0000C9483050C9483050C9483050C94330ED7
:1000D0000C94790F0C9483050C94730E0C94B80F48
:1000E0000C9483058F0894089908A408AF08B208F7
:1000F000B908BC08C508CC0801093D0948097D09B3
:10010000B909C209F709350A460A400A430AFB0041
:10011000003E000B003600010002000300000065F5
:100120000054FFEF0000FA80000B12820001000271
:100130000000000000000000000000000000002897
:100140000000FFFF4581FFFFFA7200000000000081
:1001500003E80000000100017FFFFFFE8001001B9B
:100160000000000000000000000000000000003E51
:1001700003304000000002CAE3093E800000200076
:10018000000000000000400000006000000041FF8F
:10019000000000000B2A0000165500002182FD8798
:1001A0002650FD800000001F0000000580000000B8
:1001B00000000001000000020000000300004000F9
:1001C00000000000046F0002653200005EC04000C5
:1001D0000000000000000000000000000000FB8C98
:1001E0006F5DFD5D08D9007C733B006C12CC320062
:1001F000139D3200D0D632000800400001F4FFE623
:100200008079020000000000D0D600002710FB001B
:10021000000040000000000000000000000000009E
:1002200000010000000000000100010000000000CB
:10023000FA36FFBC308E0005FBF0FFD95BC8FFD05B
:100240009ABE000010A9FFF41EB200CEBBF700005A
:10025000000100000004000200020200000CFFC2C6
:1002600080000001800000CF8000400000000000FE
:100270000001000000000000060000000014000063
:10028000000000000000000000000000000000006E
:10029000000000000000000000000000000000005E
:1002A000000000000000000000000000000000004E
:1002B0000000033F68B6793528BCC67ED16C80004B
:1002C0000000400000000000B26A000000000000D2
:1002D00000000000000000003FF0000000300000BF
:1002E000000000000000000000000000000000000E
:1002F00000000000000000000000000000000000FE
:10030000254D002F706D000005AE000C02D00000DE
:10031000000000650054FFEF000000000000000036
:1003200001000044000000000C000000010000007B
:1003300000000065000000540000FFEF0000000016
:10034000000000000000000000000000000040006D
:10035000000000000000000000000000000040005D
:10036000000000000000000000000000000000008D
:10037000000100000002000000000000000000007A
:10038000000000000000000000000000000000006D
:100390000000000000000000000000000000001B42
:1003A000000000000000000000000000000000004D
:1003B000000000000000000000000000000000003D
:1003C0000000000000000000000040000000001BD2
:1003D000000000000000000000000000000000001D
:1003E000000000000000000000000000000000000D
:1003F00000000000000000000000000000000000FD
:100400000000000000000000000000000000D8DC38
:10041000BAA2F1DEB2B8B4A88191F74A907F916A8E
:10042000F3F9DBA8F9B0BAA080F2CE81F3C2F1C132
:10043000F2C3F3CCA2B280F1C6D880BAA7DFDFDF67
:10044000F2A7C3CBC5B6F087A2942448703C954070
:100450006834589B78A2F183922D557DD8B1B4B8F9
:10046000A1D09180F270F370F27C80A8F101B09875
:1004700087D943D886C988BAA1F20EB89780F1A966
:10048000DFDFDFAADFDFDFF2AAC5CDC7A90CC92CE9
:1004900097979797F1A989264666B0B4BA80ACDEE3
:1004A000F2CAF1B28C02A9B69800890E161EB8A93C
:1004B000B4992C547CB08AA896365676F1B9AFB46C
:1004C000B083C0B8A89711B18F98B9AFF024084491
:1004D000106418F1A329557DAF83B593AFF00028C0
:1004E00050F1A3869F61A6DADEDFD9FAA38696DBF8
:1004F00031A6D9F8DFBAA68FC2C5C7B28CC1B8A2DF
:10050000DFDFDFA3DFDFDFD8D8F1B8A8B286B49889
:100510000D355DB8AA98B0872D353DB2B6BAAF8C0F
:1005200096198F9FA70E161EB49AB8AA872C547CD2
:10053000B9A3DEDFDFA3B180F2C4CDC9F1B8A9B49D
:1005400099830D355D89B9A32D557DB593A30E16FD
:100550001EA92C547CB8B4B0F19783A81184A509C6
:1005600098A383F0DA240844106418D8F1A529551B
:100570007DA58595021A2E3A565A4048F9F3A3D91B
:10058000F8F098832408441064189782A8F111F0B9
:1005900098A2240844106418DAF3DED883A59401E5
:1005A000D9A302F1A2C3C5C7D8F18492A24DDA2A19
:1005B000D84869D92AD86855DA32D85071D932D892
:1005C000705DDA3AD85879D93AD87893A34DDA2AB7
:1005D000D84869D92AD86855DA32D85071D932D872
:1005E000705DDA3AD85879D93AD878A88A9AF0283A
:1005F00050789EF38818F19F1D98A8D908D8C89FF5
:10060000129EF315A8DA1210D8F1AFC8978734B547
:10061000B994A421F3D922D8F22DF3D92AD8F235EE
:10062000F3D932D881A4606061D961D86C6869D986
:1006300069D8747071D971D8B1A384193D5DA38351
:100640001A3E5E931030811011B8B0AF8F94F2DA79
:100650003ED8B49AA88729DAF8D8879A35DAF8D834
:10066000879A3DDAF8D8B1B9A49885022E56A581AB
:10067000000C14A397B08AF12DD928D84DD948D8A9
:100680006DD968D8B1840DDA0ED8A32983DA2C0E7F
:10069000D8A3844983DA2C4C0ED8B8B0A88A9AF52E
:1006A00020AADADFD8A840AAD0DADED8A860AADA71
:1006B000D0DFD8F19786A8319B069907AB97288899
:1006C0009BF00C201440B8B0B4A88C9CF0042851C6
:1006D000791D301438B282ABD0982C505078789B6A
:1006E000F11AB0F08A9CA82951798B2951798A2472
:1006F00070598B2058718A4469388B3940688A64F4
:1007000048318B304960A5882009715844681139F7
:1007100064493019F1AC002C547CF08CA8042850AA
:1007200078F1889726A85998AC8C02264666F089FD
:100730009CA8295179247059446938644831A988A2
:1007400009205970AB11384069A8193148608CA84C
:100750003C415C207C00F187981986A86E767EA9C2
:1007600099882D557D9EB9A38A228A6E8A568A5E03
:100770009FB183062646660E2E4E6E9DB8AD002CA8
:10078000547CF2B18CB499B9A32D557D8191AC38CC
:10079000AD3AB58391AC2DD928D84DD948D86DD96B
:1007A00068D88C9DAE29D904AED851D904AED87979
:1007B000D904D881F39DAD008DAE1981ADD901D892
:1007C000F2AEDA26D88E912983A7D9ADADADADF3BF
:1007D0002AD8D8F1B0AC89913E5E76F3AC2E2EF1DA
:1007E000B18C5A9CAC2C2828289CAC3018A8988135
:1007F00028343C9724A728343C9C24F2B089AC913F
:100800002C4C6C8A9B2DD9D8D851D9D8D879D9D825
:10081000D8F19E88A331DAD8D8912DD928D84DD9CE
:1008200048D86DD968D8B18393353D8025DAD8D8BA
:100830008569DAD8D8B49381A328343CF3AB8BF81C
:10084000A391B609B4D9ABDEFAB0879CB9A3DDF1A8
:10085000A3A3A3A395F1A3A3A39DF1A3A3A3A3F291
:10086000A3B49080F2A3A3A3A3A3A3A3A3A3A3B21F
:10087000A3A3A3A3A3A3B087B599F1A3A3A398F1BE
:10088000A3A3A3A397A3A3A3A3F39BA3A3DCB9A7A9
:10089000F1262626D8D8FF037B034CCD6C03AB038F
:1008A00036567600680402CB47A202180400058B76
:1008B000C1010C0400000000037F060CC92C9797AF
:1008C00097038903264666006C022000024004005C
:1008D0000000000244040000000002480400000080
:1008E00000024C040000000002500400000000025E
:1008F00054040000000002580400000000025C04E0
:100900000000000002BC040000000001EC04000034
:100910004000037F060CC92C9797970402030D35FE
:100920005D040904872D353D00A30100000000018E
:10093000078601FE074105F120283038077E013087
:100940000746019A074704F1283038076C04F1285C
:100950003038021602000101B202FFFF01900409C3
:1009600023A135016A0206000160080000000000B2
:10097000000000006004400000000162020000006E
:1009800060040040000000002100240027002A002D
:100990002D003000330001010000040107010A01AD
:1009A00000002200250028002B002E00310034001A
:1009B00002010000050108010B01000020002300D6
:1009C000260029002C002F00320000010000030146
:1009D00006010901050505050705080808080202C2
:1009E00002020A0A080804040404010101010101C9
:1009F00001010303030303030303040707070C0CAC
:100A00000C0C0C0C0C0C0202020206060606060672
:100A100006060B0B0B0B0B0B0B0B01021020200817
:100A20000810204010204080020102010804020149
:100A300001020408102040808040201008040201B8
:100A40008004020180402010080402010804020111
:100A50000102040810204080010204081020408098
:100A60000000090A02080B0C0D0706030401000030
:100A70000000000000000000000000000000000076
:100A800000000000000000000000000011100F0036
:100A90000000000000000000000000000000000056
:100AA0000000000000009B0528113D1811241FBE06
:100AB000CFEFD1E2DEBFCDBF00E00CBF13E0A0E07E
:100AC000B2E0E4EBF8E400E00BBF02C007900D9247
:100AD000AC3BB107D9F71BBE17E0ACEBB3E001C0EC
:100AE0001D92A638B107E1F71AE0CCEADAE004C0BB
:100AF0002297FE010E945424C63AD107C9F70E94EA
:100B0000E8180C9458240C940000FB01DC0104C08C
:100B10008D910190801921F441505040C8F7881BF5
:100B2000990B0895FB01DC0102C001900D92415028
:100B30005040D8F708958CEB93E00E945E1280E05D
:100B400090E0A0E8BFE38093E5039093E603A093D1
:100B5000E703B093E80380E090E0A0E0B0E080938A
:100B6000E9039093EA03A093EB03B093EC03809323
:100B7000ED039093EE03A093EF03B093F003809303
:100B8000F1039093F203A093F303B093F4038093E3
:100B9000F5039093F603A093F703B093F8038093C3
:100BA000F9039093FA03A093FB03B093FC038093A3
:100BB000FD039093FE03A093FF03B09300040895F8
:100BC0000F931F93CF93DF9383E596E06FEC73E071
:100BD00041E150E00E94DF178091CF03863709F092
:100BE00077C08091D003882309F072C08091E00320
:100BF000882309F06DC0C1EDD3E090E08991980F92
:100C000083E0CF3DD807D1F78881891709F055C017
:100C100081E396E060E072E00E94A0178E010C5024
:100C20001040C0E0D0E081E396E066E072E00E9410
:100C30009D1781E396E0BE014AE050E00E948A17CA
:100C400081E396E069E072E00E949D1781E396E0FF
:100C5000F80161918F014AE050E00E943817219617
:100C6000C730D10501F781E396E06CE072E00E94A5
:100C7000A0170AED13E0C0E0D0E081E396E062E166
:100C800072E00E949D1781E396E0BE014AE050E0C9
:100C90000E948A1781E396E069E072E00E949D1746
:100CA00081E396E0F80161918F014AE050E00E94F3
:100CB00038172196C530D10501F781E08093E00314
:100CC00083E596E06FE273E045E050E00E947B161A
:100CD000DF91CF911F910F910895CF93DF93EC0196
:100CE0006115710519F420E030E00FC0DB010D90B3
:100CF0000020E9F71197A61BB70BE881F981028064
:100D0000F381E02DAD0119959C01C901DF91CF91CF
:100D1000089581E08093E10381E396E068E172E069
:100D20000E946D060895682F89E00E94111E0895A3
:100D3000682F8AE00E94111E08950F931F93CF938E
:100D4000DF938C018BE261E00E94111E81E090E054
:100D50000E94121C8BE260E00E94111E81E090E074
:100D60000E94121C8CE260E00E94111E81E090E063
:100D70000E94121CCFE0D0E0B8010C2E02C0769584
:100D800067950A94E2F761708AE20E94111E8BE275
:100D900061E00E94111E81E090E00E94121C8BE233
:100DA00060E00E94111E81E090E00E94121C2197D9
:100DB0008FEFCF3FD80701F78CE261E00E94111E50
:100DC000DF91CF911F910F91089594E0660F771FE7
:100DD0009A95E1F7607F7F70382F3295307F20E061
:100DE00020703077CB01822B932B0E949D060895B3
:100DF000EF92FF920F931F938C017B0186E161E0DC
:100E00000E94111E87E160E00E94111E88E161E0EE
:100E10000E94111E89E160E00E94111E84E0B80169
:100E20000E947E1C85E0B7010E947E1C1F910F91DD
:100E3000FF90EF900895EF92FF920F931F938C0114
:100E40007B0186E160E00E94111E87E161E00E9463
:100E5000111E88E160E00E94111E89E161E00E949C
:100E6000111E84E0B8010E947E1C85E0B7010E943B
:100E70007E1C1F910F91FF90EF900895EF92FF92CB
:100E80000F931F938C017B0186E161E00E94111E8C
:100E900087E160E00E94111E88E161E00E94111E5E
:100EA00089E160E00E94111E84E0B8010E947E1C6E
:100EB00085E0B7010E947E1C1F910F91FF90EF907B
:100EC0000895EF92FF920F931F938C017B0186E1AF
:100ED00060E00E94111E87E161E00E94111E88E11E
:100EE00060E00E94111E89E161E00E94111E84E011
:100EF000B8010E947E1C85E0B7010E947E1C1F91F4
:100F00000F91FF90EF900895EF92FF920F931F9330
:100F10008C017B0186E161E00E94111E87E160E0A7
:100F20000E94111E88E160E00E94111E89E161E0CB
:100F30000E94111E84E0B8010E947E1C85E0B7016A
:100F40000E947E1C1F910F91FF90EF90089584E006
:100F500060E070E00E947E1C85E060E070E00E942E
:100F60007E1C0895FF920F931F93CF93DF93809180
:100F7000E103813009F09EC004E613E0C0E0D0E058
:100F8000FF24F80180810E94441E0C2E02C0880FAD
:100F9000991F0A94E2F7F82A21960E5F1F4FC83076
:100FA000D10579F71F2D109581E396E0612F40E17F
:100FB00050E00E94381781E396E065E172E00E94FC
:100FC0006D061E3109F452C01F3128F5183009F49E
:100FD00046C0193080F4143020F4113008F054C0A9
:100FE00061C0163009F442C0173008F04DC014300B
:100FF00009F058C03BC0103130F41E30B8F51C3039
:1010000009F050C033C0183151F11C3141F1103199
:1010100009F048C024C0103781F1113780F418332B
:10102000F1F0193328F4103241F11033D9F525C00D
:10103000103489F1103609F11C33A1F510C0103CB1
:1010400051F1113C28F41837C1F0103859F523C07C
:10105000103F99F01F3F31F1103E21F51CC08CE884
:1010600090E06CE870E00E9484071EC088EC90E07D
:1010700060E070E00E943E0717C080E090E068ECFE
:1010800070E00E94610710C088EC90E060E570E0BD
:101090000E94F80609C080E590E068EC70E00E94CC
:1010A0001B0702C00E94A70765E070E080E090E0A7
:1010B0000E94B91BDF91CF911F910F91FF9008956E
:1010C0001092E1030E94A70781E396E062E372E0D9
:1010D0000E946D0608950F931F93CF93DF9381E3D2
:1010E00096E00E94AF108C0181E396E0B8014AE0DF
:1010F00050E00E948A1781E396E06DE472E00E945E
:101100009D17F8013197E531F10508F0BFC1EE58A0
:10111000FF4FEE0FFF1F0590F491E02D19941092F0
:1011200002041092010416C01092020410920104ED
:1011300029C0109202041092010482E090E0909382
:10114000040480930304AAC181E090E09093020418
:101150008093010410920404109203049FC181E063
:1011600090E015C081E090E0909302048093010428
:10117000E4CF82E090E0EACF82E090E09093020436
:101180008093010481E090E0DACF82E090E09093D8
:10119000020480930104D3CF109206041092050438
:1011A000C1E0D0E0D0930804C093070480E090E051
:1011B000A0E0B0E08093090490930A04A0930B048C
:1011C000B0930C046091010470910204882777FDAC
:1011D0008095982F0E9436239B01AC0160E070E05F
:1011E00080E090E00E94CF2220E030E040E050E03C
:1011F0000E94E6231816E4F510920E0410920D04D6
:1012000042C001E010E01093060400930504C2E020
:10121000D0E0D0930804C093070480E090E0A0E8F9
:10122000BFE38093090490930A04A0930B04B09346
:101230000C046091010470910204882777FD809569
:10124000982F0E9436239B01AC0160E070E080E89B
:101250009FE30E94CF2220E030E040E050E00E9477
:10126000E62318162CF410930E0400930D040BC003
:10127000D0930E04C0930D0406C082E090E09093DA
:101280000E0480930D041092100410920F0406C1F6
:101290001092060410920504C1E0D0E0D093080437
:1012A000C093070480E090E0A0E0B0E080930904E0
:1012B00090930A04A0930B04B0930C046091010472
:1012C00070910204882777FD8095982F0E9436231D
:1012D0009B01AC0160E070E080E090E00E94CF22D2
:1012E00020E030E040E050E00E94E6231816E4F5EC
:1012F00010920E0410920D0442C001E010E0109311
:10130000060400930504C2E0D0E0D0930804C09323
:10131000070480E090E0A0E8BFE380930904909385
:101320000A04A0930B04B0930C0460910104709123
:101330000204882777FD8095982F0E9436239B0111
:10134000AC0160E070E080E89FE30E94CF2220E0E3
:1013500030E040E050E00E94E62318162CF4109391
:101360000E0400930D040BC0D0930E04C0930D0423
:1013700006C082E090E090930E0480930D0481E01B
:1013800090E079C01092060410920504C1E0D0E00C
:10139000D0930804C093070480E090E0A0E0B0E0A0
:1013A0008093090490930A04A0930B04B0930C0457
:1013B0006091010470910204882777FD8095982F31
:1013C0000E9436239B01AC0160E070E080E090E079
:1013D0000E94CF2220E030E040E050E00E94E6236F
:1013E0001816E4F510920E0410920D043BC001E0B3
:1013F00010E01093060400930504C2E0D0E0D093FF
:101400000804C093070480E090E0A0E8BFE3809365
:10141000090490930A04A0930B04B0930C04609108
:10142000010470910204882777FD8095982F0E940F
:1014300036239B01AC0160E070E080E89FE30E94EE
:10144000CF2220E030E040E050E00E94E623181672
:101450002CF410930E0400930D0404C0D0930E04DA
:10146000C0930D0482E090E006C082E090E090938B
:101470000E0480930D049093100480930F040EC00B
:101480000E9489060BC00E94600808C00E94A7073E
:1014900080E00E94980680E00E949306DF91CF9141
:1014A0001F910F9108958F929F92AF92BF92CF920A
:1014B000EF920F93DF93CF93CDB7DEB7C059D040F3
:1014C0000FB6F894DEBF0FBECDBF5C010E94381589
:1014D0006EE170E080E090E00E94B91BC50160E021
:1014E0000E943015C50160E141E021E00E947712C1
:1014F000C50166E00E947012C5010E94BB12C501C1
:1015000060E040E020E00E947712C5010E94601573
:10151000C5010E943716882EC5010E941916982E03
:10152000C5010E94FB15C82EC50160E04FE70E946F
:101530008B12C50160E00E945015C50160E048E6CD
:101540000E948B12C5010E94401564E170E080E0AA
:1015500090E00E94B91BC5016EE071E049E857E0D8
:1015600020E000E0EE24E3940E940D15882311F49E
:1015700081E0B3C1C50167E978E040EC50E00E942A
:101580000915882311F482E0A8C1C50163E00E9417
:10159000AF15C50162E10E948412C50164E00E949A
:1015A000B412C50161E00E94F015C50163E00E941C
:1015B000E515C50163E00E94C515C50163E00E9401
:1015C0006912C50160E00E946212C50160E00E94DC
:1015D0002815C501682D0E94A415C501692D0E941A
:1015E0009915C5016C2D0E948E15C50160E070E053
:1015F0000E948715C50160E070E00E948015C5015A
:1016000060E070E00E94791588249924BE016F5F24
:101610007F4FF401E95AF64FE491DB01A80DB11DAB
:10162000EC93282D2F5F0894811C911C83E0881572
:1016300080F74B81842F90E0029630E08217930769
:1016400044F7C501BE016C5F7F4F50E029810A81DC
:10165000EE24E394CC240E947B1350E0BE016F5F24
:101660007F4FF401E95AF64FE491DB01A50FB11D5C
:10167000EC935F5F0894811C911C543090F34B8174
:10168000842F90E00296252F30E0821793074CF7C5
:10169000C501BE016C5F7F4F50E029810A81EE24B5
:1016A000E394CC240E947B13C5010E944815C50118
:1016B0000E945C13482FC501BE016F5E7F4F0E94E0
:1016C0004D13C50162E00E94AD12C5016CE90E9494
:1016D0009F12C50160E50E94A612C50160E00E944C
:1016E0009812C5010E944815C50161E00E94581575
:1016F000C50161E00E942015C5010E94181550E047
:10170000BE016F5F7F4FF401E95AF64FE491DB01B0
:10171000A50FB11DEC935F5F0894811C911C5430A0
:1017200090F34B81842F90E00296252F30E08217B2
:1017300093074CF7C501BE016C5F7F4F50E02981D4
:101740000A81EE24E394CC240E947B1350E0BE0176
:101750006F5F7F4FF401E95AF64FE491DB01A50F6B
:10176000B11DEC935F5F0894811C911C543090F381
:101770004B81842F90E00296252F30E0821793074B
:101780004CF7C501BE016C5F7F4F50E029810A8193
:10179000EE24E394CC240E947B1350E0BE016F5FE3
:1017A0007F4FF401E95AF64FE491DB01A50FB11D1B
:1017B000EC935F5F0894811C911C543090F34B8133
:1017C000842F90E00296252F30E0821793074CF784
:1017D000C501BE016C5F7F4F50E029810A81EE2474
:1017E000E394CC240E947B13C5010E945C13482F14
:1017F0008330D0F3C501BE016F5E7F4F0E944D1351
:10180000C5010E94CF1250E0BE016F5F7F4FF4010F
:10181000E95AF64FE491DB01A50FB11DEC935F5F30
:101820000894811C911C543090F34B81842F90E0DC
:101830000296252F30E0821793074CF7C501BE01B1
:101840006C5F7F4F50E029810A810E94E312C5013D
:101850000E945C13482F8330D0F3C501BE016F5E38
:101860007F4F0E944D13C5010E94CF1250E0BE0170
:101870006F5F7F4FF401E95AF64FE491DB01A50F4A
:10188000B11DEC935F5F0894811C911C543090F360
:101890004B81842F90E00296252F30E0821793072A
:1018A0004CF7C501BE016C5F7F4F50E029810A8172
:1018B000EE24E394CC240E947B13C50160E00E94D7
:1018C00020158AE290E0F50193838283C5010E948E
:1018D0004815C5010E94CF1280E0C057DF4F0FB6F8
:1018E000F894DEBF0FBECDBFCF91DF910F91EF9087
:1018F000CF90BF90AF909F908F900895CF92DF923E
:10190000EF92FF920F931F93DF93CF93CDB7DEB784
:10191000A0970FB6F894DEBF0FBECDBFDE011196C3
:10192000ECE8F3E080E101900D928150E1F7DE01F7
:101930005196ECE7F3E080E101900D928150E1F7E0
:101940008FEF96E00E94DD1881E396E040E052ECD4
:1019500061E070E00E94F70F04E313E004C081E34C
:1019600096E00E94E810F80161918F016623B9F7B3
:1019700081E396E06AE672E00E946D0683E596E0F8
:1019800040E052EC61E070E00E94F70F8AE061E015
:101990000E945E1D89E061E00E945E1D86E161E0BB
:1019A0000E945E1D87E161E00E945E1D88E161E0AA
:1019B0000E945E1D89E161E00E945E1D84E061E09D
:1019C0000E945E1D85E061E00E945E1D86E160E090
:1019D0000E94111E87E160E00E94111E88E160E014
:1019E0000E94111E89E160E00E94111E84E060E007
:1019F0000E94111E85E060E00E94111E8AE161E0F4
:101A00000E945E1D8AE261E00E945E1D8BE261E041
:101A10000E945E1D8CE261E00E945E1D8BE260E030
:101A20000E94111E8CE261E00E94111E8AE161E0B9
:101A30000E94111E04E613E0F801808160E00E941C
:101A40005E1D0E5F1F4FF3E004371F07A9F780E00C
:101A500090E90E949D066E010894C11CD11C31E1E1
:101A6000E32EF12CEC0EFD1E00E010E0F701819159
:101A700091917F01F601219131916F01820F931FA6
:101A800062E070E00E9409247595679575956795E9
:101A9000C8010E94E5060F5F1F4F0830110531F79E
:101AA00081E396E06AE772E00E94A0178CEB93E076
:101AB0000E94D01581E396E065E972E00E94A017CC
:101AC0008CEB93E00E947316882319F462EB72E0AA
:101AD00002C06CEC72E081E396E00E94A01781E303
:101AE00096E06AEE72E00E94A0178CEB93E00E94F1
:101AF000530A8093E2038823A1F481E396E06DEF1B
:101B000072E00E94A0178CEB93E061E00E94201528
:101B10008091BE039091BF039093E4038093E3030D
:101B200014C081E396E06CE073E00E949D1781E3AE
:101B300096E06091E2034AE050E00E94381781E3AA
:101B400096E06DE273E00E94A017A0960FB6F8949D
:101B5000DEBF0FBECDBFCF91DF911F910F91FF90E0
:101B6000EF90DF90CF9008951F920F920FB60F92D3
:101B70000BB60F9211242F933F934F938F939F9304
:101B8000EF93FF938091C00082FD1DC04091C6007D
:101B900020915104309152042F5F3F4F2F733070CA
:101BA00080915304909154042817390771F0E09103
:101BB0005104F0915204EF5EFB4F40833093520486
:101BC0002093510402C08091C600FF91EF919F9134
:101BD0008F914F913F912F910F900BBE0F900FBEA1
:101BE0000F901F9018951F920F920FB60F920BB681
:101BF0000F9211242F933F934F938F939F93EF93C3
:101C0000FF938091C80082FD1DC04091CE002091BD
:101C1000D9043091DA042F5F3F4F2F7330708091D9
:101C2000DB049091DC042817390771F0E091D904A6
:101C3000F091DA04E756FB4F40833093DA042093A7
:101C4000D90402C08091CE00FF91EF919F918F91B6
:101C50004F913F912F910F900BBE0F900FBE0F90A1
:101C60001F90189508951F920F920FB60F920BB602
:101C70000F9211242F933F934F938F939F93EF9342
:101C8000FF938091D00082FD1DC04091D60020912D
:101C90006105309162052F5F3F4F2F733070809147
:101CA0006305909164052817390771F0E09161058B
:101CB000F0916205EF5DFA4F408330936205209307
:101CC000610502C08091D600FF91EF919F918F91A5
:101CD0004F913F912F910F900BBE0F900FBE0F9021
:101CE0001F90189508951F920F920FB60F920BB682
:101CF0000F9211242F933F934F938F939F93EF93C2
:101D0000FF938091300182FD1DC0409136012091EA
:101D1000E9053091EA052F5F3F4F2F7330708091B6
:101D2000EB059091EC052817390771F0E091E90572
:101D3000F091EA05E755FA4F40833093EA05209386
:101D4000E90502C080913601FF91EF919F918F913B
:101D50004F913F912F910F900BBE0F900FBE0F90A0
:101D60001F901895E0913D06F0913E06E05CFF4F14
:101D70008191919120813181821B930B8F7390709F
:101D8000892B11F00E946B08E0915F06F0916006CC
:101D9000E05CFF4F8191919120813181821B930BF7
:101DA0008F739070892B11F00E94E005E0918106FD
:101DB000F0918206E05CFF4F819191912081318109
:101DC000821B930B8F739070892B11F00E94320E3F
:101DD000E091A306F091A406E05CFF4F8191919100
:101DE00020813181821B930B8F739070892B11F0AE
:101DF0000E94720E08951F920F920FB60F920BB6AB
:101E00000F9211242F933F938F939F93EF93FF9300
:101E100020919504309196048091970490919804B4
:101E20002817390731F48091C1008F7D8093C1005C
:101E300014C0E0919704F0919804EB5AFB4F208175
:101E4000809197049091980401968F73907090936D
:101E50009804809397042093C600FF91EF919F917F
:101E60008F913F912F910F900BBE0F900FBE0F904F
:101E70001F9018951F920F920FB60F920BB60F92EC
:101E800011242F933F938F939F93EF93FF93209170
:101E90001D0530911E0580911F0590912005281782
:101EA000390731F48091C9008F7D8093C90014C037
:101EB000E0911F05F0912005E352FB4F20818091B6
:101EC0001F059091200501968F73907090932005C7
:101ED00080931F052093CE00FF91EF919F918F91EA
:101EE0003F912F910F900BBE0F900FBE0F901F9040
:101EF00018951F920F920FB60F920BB60F921124E6
:101F00002F933F938F939F93EF93FF932091A5057A
:101F10003091A6058091A7059091A805281739074B
:101F200031F48091D1008F7D8093D10014C0E09175
:101F3000A705F091A805EB59FA4F20818091A705DC
:101F40009091A80501968F7390709093A805809347
:101F5000A7052093D600FF91EF919F918F913F911C
:101F60002F910F900BBE0F900FBE0F901F901895E2
:101F70001F920F920FB60F920BB60F9211242F9350
:101F80003F938F939F93EF93FF9320912D06309172
:101F90002E0680912F06909130062817390731F4CC
:101FA000809131018F7D8093310114C0E0912F0623
:101FB000F0913006E351FA4F208180912F069091E5
:101FC000300601968F7390709093300680932F06A1
:101FD00020933601FF91EF919F918F913F912F9127
:101FE0000F900BBE0F900FBE0F901F901895AF92E1
:101FF000BF92DF92EF92FF920F931F93CF93DF93E5
:10200000EC017A018B01DD24403081EE580780E03D
:10201000680780E0780711F0DD24D39491E0A92EC1
:10202000B12CEC89FD89DD2069F0C50108A002C052
:10203000880F991F0A94E2F7808360E079E08DE3CE
:1020400090E005C0108260E874E88EE190E0A8019D
:1020500097010E941C24215030404040504056952A
:1020600047953795279580E12030380720F0DD200F
:1020700011F0DD24D6CFE889F9893083EA89FB891C
:10208000208319A2EE89FF89408121E030E0C90157
:102090000C8C02C0880F991F0A94E2F7482B4083EA
:1020A000EE89FF894081C9010D8C02C0880F991FFC
:1020B0000A94E2F7482B4083EE89FF894081C901E9
:1020C0000E8C02C0880F991F0A94E2F7482B4083B8
:1020D000EE89FF8980810F8C02C0220F331F0A9482
:1020E000E2F7209528232083DF91CF911F910F9154
:1020F000FF90EF90DF90BF90AF900895DC011C96A9
:10210000ED91FC911D97E05CFF4F21913191808111
:102110009181281B390B2F733070C9010895DC01A0
:102120001C96ED91FC911D97E05CFF4F2081318161
:10213000E054F040DF01AE5BBF4F8D919C91119751
:102140002817390719F42FEF3FEF07C08D919C91A5
:10215000E80FF91F8081282F30E0C9010895DC01C4
:102160001C96ED91FC911D97E05CFF4F2081318121
:10217000E054F040DF01AE5BBF4F8D919C91119711
:102180002817390719F42FEF3FEF10C08D919C915C
:102190001197E80FF91F20818D919C91119701965D
:1021A0008F73907011969C938E9330E0C9010895BF
:1021B000DC0191968C919197882339F05496ED919A
:1021C000FC915597808186FFF9CF91961C920895D6
:1021D000CF93DF93EC01EE85FF85E05CFF4F20811C
:1021E0003181E054F0402F5F3F4F2F733070DF019B
:1021F000AE5BBF4F8D919C91119728173907D1F392
:10220000E05CFF4F80819181E054F040E80FF91FBE
:102210006083EE85FF85E05CFF4F31832083EE898C
:10222000FF89208181E090E00F8C02C0880F991F08
:102230000A94E2F7282B208381E089A3EC89FD89A9
:1022400080818064808381E090E0DF91CF91089568
:102250001F93109234061092330628EE33E040E0CC
:1022600050E020933506309336064093370650935E
:10227000380660EA73E0709332066093310681E1BC
:1022800094E090933E0680933D0685E594E090931C
:10229000400680933F0685EC90E090934206809341
:1022A000410684EC90E0909344068093430680ECD2
:1022B00090E0909346068093450681EC90E09093E1
:1022C00048068093470682EC90E090934A068093FC
:1022D000490686EC90E090934C0680934B0614E000
:1022E00010934D06B3E0B0934E06A7E0A0934F06BF
:1022F000F5E0F0935006E1E0E093510610925606A7
:10230000109255062093570630935806409359066D
:1023100050935A06709354066093530689E994E0EB
:102320009093600680935F068DED94E09093620633
:10233000809361068DEC90E0909364068093630631
:102340008CEC90E0909366068093650688EC90E0B4
:10235000909368068093670689EC90E090936A06F4
:10236000809369068AEC90E090936C0680936B06EC
:102370008EEC90E090936E0680936D0610936F063E
:10238000B0937006A0937106F0937206E093730603
:1023900010927806109277062093790630937A0689
:1023A00040937B0650937C06709376066093750687
:1023B00081E295E0909382068093810685E695E020
:1023C000909384068093830685ED90E09093860633
:1023D0008093850684ED90E090938806809387062D
:1023E00080ED90E090938A068093890681ED90E0DD
:1023F00090938C0680938B0682ED90E090938E06EE
:1024000080938D0686ED90E09093900680938F06E2
:1024100010939106B0939206A0939306F0939406BE
:10242000E093950610929A061092990620939B06C7
:1024300030939C0640939D0650939E067093980699
:102440006093970689EA95E09093A4068093A3068B
:102450008DEE95E09093A6068093A50685E391E026
:102460009093A8068093A70684E391E09093AA0630
:102470008093A90680E391E09093AC068093AB062D
:1024800081E391E09093AE068093AD0682E391E004
:102490009093B0068093AF0686E391E09093B206E6
:1024A0008093B1061093B306B093B406A093B5061B
:1024B000F093B606E093B7061F910895FC0188E6F5
:1024C00080830895FC01462F808161E70E941221DC
:1024D0000895FC01462F808160E70E941221089533
:1024E000FC01462F80816EE60E9412210895FC01B6
:1024F000962F9F71211190624111906480816DE649
:10250000492F0E9412210895FC01462F808168E323
:102510000E9412210895FC01862F643040F463E08C
:10252000869FB00111246B5D80810E941221089565
:10253000FC01462F808162E20E9412210895FC0175
:10254000462F808161E20E9412210895FC01462FEE
:10255000808160E20E9412210895FC01462F808153
:102560006FE10E9412210895FC01462F808169E1EC
:102570000E94122108950F931F938C01AC014F5FAD
:102580005F4F20917A0330917B03FC0180816FE6DD
:102590000E94D821F80181811F910F9108950F9316
:1025A0001F938C01AC014F5F5F4F20917A033091F4
:1025B0007B03FC0180816AE30E94D821F8018181BC
:1025C0001F910F9108954F925F926F927F929F9209
:1025D000AF92BF92CF92DF92EF92FF920F931F9331
:1025E000CF93DF936C013B015A01922EE02E622FB4
:1025F00040E020E00E947712C601602F0E94701216
:10260000C0E0D0E0412C91E0592E34C0CE0140967C
:10261000A816B90618F080E1F82E02C0FA2CFC1AB0
:102620002F2D30E0C2018E1991098217930714F4FF
:10263000FE2CF19493012C0F3D1F00917A03109111
:102640007B03F60180816FE64F2D0E942221CF0D82
:10265000D11DEF0CCA15DB0568F4EE2009F4939444
:10266000C601692D40E020E00E947712C6016E2D60
:102670000E947012CA15DB0548F2DF91CF911F91BD
:102680000F91FF90EF90DF90CF90BF90AF909F9011
:102690007F906F905F904F9008950F931F93FC0170
:1026A0009B0100917A0310917B03808164E70E9473
:1026B00022211F910F910895EF92FF920F931F9384
:1026C0007C019C012F5F3F4F00917A0310917B03A7
:1026D000FC01808162E742E00E942221F7019181A2
:1026E00080E0228130E0282B392BC9011F910F9106
:1026F000FF90EF9008953F924F925F926F927F927A
:102700008F929F92AF92BF92CF92DF92EF92FF9201
:102710000F931F93DF93CF9300D00F92CDB7DEB707
:102720005C017A8369832A01622E702E3E2CEC2C88
:10273000622F40E020E00E947712C501602F0E94C6
:102740007012332029F080E190E00E94741E4C0149
:10275000EE2029F080E190E00E94741E6C011C8242
:102760001B827BC08B819C8140964816590618F0CD
:10277000E0E1FE2E03C0F42C8B81F81A2F2D30E0FF
:1027800080E091E0871991098217930714F4F72CE0
:10279000F194E981FA81AB81BC81EA0FFB1FEE2045
:1027A00089F0AF0120E030E00AC0FA018491F6011F
:1027B000E20FF31F80832F5F3F4F4F5F5F4F2F1557
:1027C000A0F301C06F01D5018C916FE64F2D9601EA
:1027D0000E94DF20332051F18114910439F1C501A9
:1027E000662D40E020E00E947712C501672D0E940F
:1027F000701200917A0310917B03F50180816FE6DE
:102800004F2D94010E942221C601B4014F2D50E0AA
:102810000E948505009751F0C4010E94111FEE200F
:1028200019F0C6010E94111F80E028C08B819C8195
:102830008F0D911D9C838B837F0C8415950568F407
:10284000772009F46394C501662D40E020E00E94E2
:102850007712C501672D0E947012AB81BC81A4154F
:10286000B50508F47FCF332019F0C4010E94111F71
:10287000EE2019F0C6010E94111F81E00F900F9009
:102880000F900F90CF91DF911F910F91FF90EF90DC
:10289000DF90CF90BF90AF909F908F907F906F9080
:1028A0005F904F903F9008952F923F924F925F928A
:1028B0006F927F928F929F92AF92BF92CF92EF9240
:1028C000FF920F931F93CF93DF932C014B011A01BB
:1028D000F22E222309F47CC088E090E00E94741E4E
:1028E0005C0176C0AE014F5F5F4FF401EC0FFD1F3E
:1028F000FF2091F08491BA016F5F7F4F480D591D01
:10290000FA019491EB012196680D791DFB01649108
:10291000E82E092F162F0DC0E080F401E40FF51FFB
:102920000081CA010196F401E80FF91F1081EC0142
:102930002196112389F1FF20F1F0133030F0C50109
:10294000612F70E00E94A91F5C01A4014C0F5D1F64
:1029500020E030E0612F70E00AC0FA018491F501B7
:10296000E20FF31F80832F5F3F4F4F5F5F4F2617AC
:10297000370798F303C05401AC0EBD1E612E7724B7
:10298000C201B501A3012E2DEE24E394CC240E94B4
:102990007B13882301F515C0F401EC0FFD1FCE0158
:1029A0000196FF2019F0EC01249102C02081EC0176
:1029B000213039F4F201808168E342E30E94122160
:1029C0000CC0FF2019F0C5010E94111F80E00FC04C
:1029D000C0E0D0E002C0C60DD71DC215D30508F473
:1029E00081CFFF2019F0C5010E94111F81E0DF9106
:1029F000CF911F910F91FF90EF90CF90BF90AF902C
:102A00009F908F907F906F905F904F903F902F900E
:102A1000089521E00E9454140895CF92EF920F93ED
:102A2000CC24C3940E947B130F91EF90CF90089514
:102A3000FC0180816AE643E021E00E942D22089596
:102A4000FC01262F80816AE647E00E942D2208952E
:102A5000FC01262F808160E040E00E942D22089535
:102A6000FC01262F80816BE646E00E942D2208950E
:102A7000FC0180816BE647E021E00E942D22089551
:102A8000FC0180816AE641E021E00E942D22089548
:102A9000FC0180816AE642E021E00E942D22089537
:102AA000FC01262F80816AE645E00E942D220895D0
:102AB000FC01262F80816AE646E00E942D220895BF
:102AC000EF92FF920F931F937C019C012F5F3F4F6A
:102AD00000917A0310917B03FC01808160E040E06B
:102AE0000E94A922F70181811F910F91FF90EF9021
:102AF0000895FC01AB01808167E10E94CC2008951C
:102B0000FC01AB01808165E10E94CC200895FC01AD
:102B1000AB01808163E10E94CC2008950F93FC01FA
:102B2000062F808162E046E026E00E94E3210F91BB
:102B300008950F93FC01062F808161E046E026E0B6
:102B40000E94E3210F9108950F93FC01062F8081CD
:102B500060E046E026E00E94E3210F9108950F9384
:102B6000FC01062F80816BE642E023E00E94E32116
:102B70000F9108950F93FC01062F80816CE144E0D2
:102B800022E00E94E3210F9108950F93FC01062F8C
:102B900080816BE144E022E00E94E3210F910895DF
:102BA0000F931F938C0161E00E94AF15C80160E094
:102BB0000E94C515C80160E00E94BA15C80160E016
:102BC0000E9430151F910F9108950F93FC01062F5D
:102BD00080816AE142E023E00E94E3210F910895A1
:102BE0000F93FC01062F80816AE145E023E00E94FB
:102BF000E3210F910895CF92DF92EF92FF920F930E
:102C00001F936C018C010F5F1F4FE0907A03F090CF
:102C10007B03FC01808162E046E026E00E9467229F
:102C2000F60181811F910F91FF90EF90DF90CF907F
:102C30000895CF92DF92EF92FF920F931F936C0152
:102C40008C010F5F1F4FE0907A03F0907B03FC0133
:102C5000808161E046E026E00E946722F6018181E2
:102C60001F910F91FF90EF90DF90CF900895CF923A
:102C7000DF92EF92FF920F931F936C018C010F5F15
:102C80001F4FE0907A03F0907B03FC01808160E0AD
:102C900046E026E00E946722F60181811F910F9194
:102CA000FF90EF90DF90CF900895CF92DF92EF9258
:102CB000FF920F931F936C018C010F5F1F4FE090E9
:102CC0007A03F0907B03FC01808165E746E026E013
:102CD0000E946722F60181811F910F91FF90EF9072
:102CE000DF90CF9008950E94551690E0843309F448
:102CF00091E0892F0895CF92DF92EF92FF920F9388
:102D00001F93CF93DF937C016B018A01C0E0D0E079
:102D10000FC0D6016D916D01D701ED91FC9101902D
:102D2000F081E02DC7011995C80FD91F015010403F
:102D30000115110571F7CE01DF91CF911F910F9110
:102D4000FF90EF90DF90CF900895EF92FF920F9356
:102D50001F938C01DC01ED91FC910190F081E02D3D
:102D60006DE019957C01D801ED91FC910190F08105
:102D7000E02DC8016AE019959C012E0D3F1DC90187
:102D80001F910F91FF90EF9008954F925F927F9265
:102D90008F929F92AF92BF92CF92DF92EF92FF926B
:102DA0000F931F93DF93CF93CDB7DEB7A1970FB6E5
:102DB000F894DEBF0FBECDBF2C01742ECB012230A4
:102DC00008F42AE019A231E2C32ED12CCC0EDD1E6C
:102DD000822E9924AA24BB24672D752FA501940166
:102DE0000E941C2479018A01C801B701A501940140
:102DF0000E94EA23472D461B0894C108D1084A3097
:102E000014F4405D01C0495CF6014083E114F10413
:102E10000105110521F07E2C5F2DC801DDCFC20117
:102E2000B6010E946D06A1960FB6F894DEBF0FBEE4
:102E3000CDBFCF91DF911F910F91FF90EF90DF9069
:102E4000CF90BF90AF909F908F907F905F904F906A
:102E50000895DC012115310541F4ED91FC910190BB
:102E6000F081E02D642F199508950E94C5160895EC
:102E7000EF92FF920F931F939A01E62EFF2400E03A
:102E800010E0B801A7010E9429171F910F91FF9030
:102E9000EF900895CF92DF92EF92FF920F931F93DE
:102EA000CF93DF93EC016A017B012115310541F4D9
:102EB000E881F9810190F081E02D642F19951FC000
:102EC0002A303105D1F477FF17C0E881F9810190EC
:102ED000F081E02D6DE219958C0144275527BA0148
:102EE0004C195D096E097F09CE012AE00E94C516C2
:102EF0009801280F391F04C02AE00E94C5169C01C2
:102F0000C901DF91CF911F910F91FF90EF90DF905A
:102F1000CF900895EF92FF920F931F937B019A0138
:102F20000027F7FC0095102FB801A7010E944A174F
:102F30001F910F91FF90EF9008950E946D060895E4
:102F4000EF92FF920F931F937C010E946D068C01FC
:102F5000C7010E94A516080F191FC8011F910F91E4
:102F6000FF90EF900895CF93DF93EC010E94AB1B8D
:102F7000688779878A879B87E881F9810680F7814E
:102F8000E02DCE0119959C0197FF15C00E94AB1B47
:102F9000288539854A855B85621B730B840B950BED
:102FA0002C813D814E815F816217730784079507ED
:102FB00018F32FEF3FEFC901DF91CF910895CF9222
:102FC000DF92EF92FF920F931F93CF93DF936C01E9
:102FD0008B017A01C0E0D0E009C0C6010E94B3179E
:102FE00097FD07C0F80181938F012196CE15DF056B
:102FF000A0F3CE01DF91CF911F910F91FF90EF9041
:10300000DF90CF90089581E08093FE066093DB0609
:103010001092FC061092FD0608952091DA0630E029
:103020008091D906281B3109C90108954091D9061C
:103030008091DA06481718F02FEF3FEF0AC0E42F0F
:10304000F0E0E754F94F8081282F30E04F5F409344
:10305000D906C9010895E091D9068091DA06E817EA
:1030600018F0EFEFFFEF06C0F0E0E754F94F808172
:10307000E82FF0E0CF010895089510920207109212
:10308000010788EE93E0A0E0B0E0809303079093FF
:103090000407A0930507B093060780EB93E0909395
:1030A00000078093FF060895CF92DF92EF92FF9280
:1030B0000F931F93CF93DF937C016B018A01809163
:1030C000FE068823A1F0C0E0D0E00DC0D701ED914D
:1030D000FC91D601AC0FBD1F0190F081E02DC7011E
:1030E0006C9119952196C017D10780F304C0CB01CC
:1030F000642F0E949519C801DF91CF911F910F9104
:10310000FF90EF90DF90CF900895DF93CF930F92D1
:10311000CDB7DEB7FC0169838091FE068823C9F034
:103120008091FD06803238F081E090E093838283C5
:1031300020E030E015C08091FC06E82FF0E0E4527A
:10314000F94F998190838F5F8093FC068093FD06F1
:1031500005C0CE01019661E00E94951921E030E0A2
:10316000C9010F90CF91DF9108950F93062F8091A1
:10317000DB066CED76E04091FD0621E00E944019EF
:103180001092FC061092FD061092FE060F91089513
:1031900061E00E94B5180895413208F040E2862FA0
:1031A00069EB76E00E94F7181092D9068093DA0650
:1031B000089521E00E94CC1808951092D90610922B
:1031C000DA061092FC061092FD060E94451B089537
:1031D000CF93DF930E941C1C0E947E0CC2EBDEE0AA
:1031E0000E94B2072097E1F30E94B20EF9CF382F68
:1031F000413210F040E042C080910B078823E1F794
:1032000091E090930B0720930D078FEF8093780741
:10321000109233074150409334074F5F90930C074F
:1032200080910C07330F832B80930C0780910E073E
:10323000813041F410920E0780910C078093BB00FF
:1032400085EC01C085EE8093BC0080910B07813036
:10325000E1F380913307841710F44091330720E0A5
:1032600030E00AC0FB01E20FF31FD901AD5EB84F99
:103270008C9180832F5F3F4F2417A0F3842F0895F4
:103280000F931F93582F122F413210F081E04AC044
:1032900080910B078823E1F782E080930B0700936E
:1032A0000D078FEF80937807109233074093340710
:1032B000A3E1B7E0FB0102C081918D938E2F861BA5
:1032C0008417D0F310920C0780910C07550F852BB3
:1032D00080930C0780910E07813041F410920E0705
:1032E00080910C078093BB0085EC01C085EE809334
:1032F000BC00112321F080910B078230E1F3809113
:1033000078078F3F11F480E00DC0809178078032FC
:1033100011F482E007C080917807803311F084E0D7
:1033200001C083E01F910F910895482F613210F082
:1033300081E0089580910B07843011F082E00895B8
:1033400060935607A5E3B7E0842F9C01F90102C002
:1033500081918D938E2F841B8617D0F380E0089582
:103360001F920F920FB60F920BB60F9211242F934C
:103370003F934F935F936F937F938F939F93AF93FD
:10338000BF93EF93FF938091B90090E0887F907096
:103390008036910509F4F2C081369105CCF588326A
:1033A000910509F47BC089329105B4F4803191050F
:1033B00009F46FC0813191053CF4009709F447C1CD
:1033C000089709F04FC165C08831910509F466C0BE
:1033D000809709F047C182C08034910509F4A4C0E8
:1033E0008134910544F48033910509F482C0C89773
:1033F00009F038C189C08035910509F489C0883544
:10340000910509F496C08834910509F02BC1AEC02E
:103410008839910509F413C189399105ECF488378D
:10342000910509F4ABC0893791054CF488369105B4
:1034300009F4A4C08037910509F014C19FC08838F1
:10344000910509F4FCC08039910509F49DC08038CC
:10345000910509F007C198C0803B910509F4C6C0E9
:10346000813B91054CF4803A910509F49FC0883A5C
:10347000910509F0F7C0BAC0803C910509F4E3C09A
:10348000883C910509F4DFC0883B910509F0EAC04A
:10349000C2C080910C078093BB00CFC090913307CE
:1034A00080913407981768F490913307E92FF0E082
:1034B000ED5EF84F80818093BB009F5F9093330750
:1034C000BCC080910D07882309F44BC085ED809323
:1034D000BC008091BC0084FDFCCFC2C080E2809320
:1034E000780785ED8093BC008091BC0084FDFCCF03
:1034F000B7C080E38093780785ED8093BC0080910E
:10350000BC0084FDFCCFACC088E3809378079BC0EF
:10351000809133079091BB00E82FF0E0ED5EF84F0B
:1035200090838F5F809333079091330780913407A6
:1035300082C0809133079091BB00E82FF0E0ED5EF0
:10354000F84F90838F5F8093330780910D07882316
:1035500041F085ED8093BC008091BC0084FDFCCFE0
:103560007FC081E080930E0784EA6EC085ED809372
:10357000BC008091BC0084FDFCCF72C083E08093CE
:103580000B071092770759C080917707803208F0B7
:1035900056C0809177079091BB00E82FF0E0E95A80
:1035A000F84F90838F5F8093770747C080917707AC
:1035B000803230F4E0917707F0E0E95AF84F10825A
:1035C00085ED8093BC008091BC0084FDFCCF1092FF
:1035D0000B0760917707E0911107F091120787E5DB
:1035E00097E070E01995109277072DC084E08093E2
:1035F0000B071092550710925607E0910F07F091B4
:103600001007199580915607882329F481E080934B
:1036100056071092350790915507E92FF0E0EB5CC3
:10362000F84F80818093BB009F5F909355079091E6
:10363000550780915607981710F485EC01C085E86E
:103640008093BC000FC085EC8093BC0009C0109231
:10365000780785ED8093BC008091BC0084FDFCCF91
:1036600010920B07FF91EF91BF91AF919F918F91B6
:103670007F916F915F914F913F912F910F900BBE72
:103680000F900FBE0F901F90189510920B0781E0BE
:1036900080930D0710920E0784E161E00E94111ED5
:1036A00085E161E00E94111EE9EBF0E080818E7FF0
:1036B000808380818D7F808388E98093B80085E452
:1036C0008093BC0008951F920F920FB60F921124A1
:1036D0002F933F938F939F93AF93BF9380917D07D9
:1036E00090917E07A0917F07B0918007309181076C
:1036F0000196A11DB11D232F2D5F2D3720F02D57D1
:103700000196A11DB11D2093810780937D079093A1
:103710007E07A0937F07B0938007809179079091EF
:103720007A07A0917B07B0917C070196A11DB11D7E
:103730008093790790937A07A0937B07B0937C07D7
:10374000BF91AF919F918F913F912F910F900FBE9D
:103750000F901F9018958FB7F89420917D073091A6
:103760007E0740917F07509180078FBFB901CA0142
:1037700008959B01AC017FB7F894809179079091EF
:103780007A07A0917B07B0917C0766B5A89B05C01E
:103790006F3F19F00196A11DB11D7FBFBA2FA92F50
:1037A000982F8827860F911DA11DB11D62E0880FFB
:1037B000991FAA1FBB1F6A95D1F7BC012DC0FFB787
:1037C000F8948091790790917A07A0917B07B09146
:1037D0007C07E6B5A89B05C0EF3F19F00196A11D37
:1037E000B11DFFBFBA2FA92F982F88278E0F911DCB
:1037F000A11DB11DE2E0880F991FAA1FBB1FEA950A
:10380000D1F7861B970B885E9340C8F22150304059
:103810004040504068517C4F21153105410551050C
:1038200071F60895019739F0880F991F880F991F35
:1038300002970197F1F70895789484B5826084BD6A
:1038400084B5816084BD85B5826085BD85B58160A4
:1038500085BDEEE6F0E0808181608083E1E8F0E004
:103860001082808182608083808181608083E0E833
:10387000F0E0808181608083E1EBF0E08081846012
:103880008083E0EBF0E0808181608083E1E9F0E01B
:10389000808182608083808181608083E0E9F0E0C4
:1038A000808181608083E1EAF0E0808182608083B2
:1038B000808181608083E0EAF0E0808181608083A4
:1038C000E1E2F1E080818260808380818160808399
:1038D000E0E2F1E0808181608083EAE7F0E08081CE
:1038E0008460808380818260808380818160808326
:1038F0008081806880831092C10008951F93CF93C8
:10390000DF93182FEB0161E00E945E1D209709F400
:10391000CAC0CF3FD10509F4C9C0E12FF0E0E05A99
:10392000F54F8491893009F466C08A30B0F4843050
:10393000F1F1853040F4823059F1833070F58130F7
:1039400009F0AEC020C0873009F443C0883008F0C9
:1039500048C0863009F0A4C034C08D3009F478C066
:103960008E3038F48B3009F45AC08C3008F066C0C1
:103970004CC0803109F480C0813109F487C08F3098
:1039800009F08EC06FC084B5806884BDC7BD92C089
:1039900084B5806284BDC8BD8DC080918000806880
:1039A00080938000D0938900C093880083C0809169
:1039B0008000806280938000D0938B00C0938A0047
:1039C00079C08091B00080688093B000C093B3004C
:1039D00071C08091B00080628093B000C093B40049
:1039E00069C080919000806880939000D093990086
:1039F000C09398005FC08091900080628093900097
:103A0000D0939B00C0939A0055C08091900088602D
:103A100080939000D0939D00C0939C004BC08091F8
:103A2000A00080688093A0008091A0008F7B80938D
:103A3000A000D093A900C093A8003CC08091A00032
:103A400080628093A000D093AB00C093AA0032C0E4
:103A50008091A00088608093A000D093AD00C093B7
:103A6000AC0028C080912001806880932001D09311
:103A70002901C09328011EC080912001806280939B
:103A80002001D0932B01C0932A0114C08091200102
:103A9000886080932001D0932D01C0932C010AC02F
:103AA000C038D1051CF4812F60E002C0812F61E095
:103AB0000E94111EDF91CF911F910895CF93DF9344
:103AC000482F50E0CA01865E954FFC0134914C525C
:103AD000564FFA018491882369F190E0880F991F6D
:103AE000FC01EA57F64FA591B491FC01E056F64F60
:103AF000C591D491662351F42FB7F8948C91932FEC
:103B0000909589238C93888189230BC0623061F45E
:103B10002FB7F8948C91932F909589238C9388815B
:103B2000832B88832FBF06C09FB7F8948C91832B7B
:103B30008C939FBFDF91CF910895893009F449C0DC
:103B40008A30A0F4843051F1853040F4823079F12C
:103B5000833000F5813009F063C026C0873079F1E9
:103B6000883098F5863009F05BC025C08D3009F4A7
:103B700042C08E3028F48B30B1F18C30C0F52DC0AE
:103B8000803109F442C0813109F445C08F3009F019
:103B900047C037C0809180008F7703C0809180003C
:103BA0008F7D80938000089584B58F7702C084B59F
:103BB0008F7D84BD08958091B0008F7703C0809180
:103BC000B0008F7D8093B0000895809190008F7732
:103BD00007C0809190008F7D03C080919000877F07
:103BE0008093900008958091A0008F7707C0809106
:103BF000A0008F7D03C08091A000877F8093A000EC
:103C00000895809120018F7703C0809120018F7DDE
:103C100080932001089580912001877F8093200167
:103C20000895FF920F931F93F62E482F50E0CA017C
:103C3000805A954FFC012491CA01865E954FFC0184
:103C400014914C52564FFA0104910023C9F02223DB
:103C500019F0822F0E949D1DE02FF0E0EE0FFF1F54
:103C6000E056F64FA591B4919FB7F894FF2021F448
:103C70008C911095812302C08C91812B8C939FBFD6
:103C80001F910F91FF9008950F931F93482F50E0BD
:103C9000CA01805A954FFC012491CA01865E954F56
:103CA000FC0104914C52564FFA011491112319F45E
:103CB00020E030E015C0222319F0822F0E949D1DC4
:103CC000812F90E0880F991F8654964FFC01A59193
:103CD000B4918C9120E030E0802311F021E030E0BD
:103CE000C9011F910F9108950F931F93CF93DF93F5
:103CF000BC018230910510F462E070E0E09184072D
:103D0000F091850740E050E0A0E0B0E024C0808161
:103D1000918186179707D0F08617970771F48281F3
:103D20009381109729F013969C938E9312972CC031
:103D3000909385078093840727C04115510519F09A
:103D40008417950718F48D01AC01EF01DF01828122
:103D500093819C01F9013097D1F641155105F9F095
:103D6000CA01861B970B8430910580F48A819B8160
:103D70000115110521F0F8019383828304C090930B
:103D8000850780938407FE01329645C0FE01E80F47
:103D9000F91F619371930297998388833CC0809146
:103DA000820790918307892B41F48091760390914B
:103DB0007703909383078093820740917803509113
:103DC00079034115510541F44DB75EB780917403F5
:103DD00090917503481B590B2091820730918307FE
:103DE00024173507B0F4CA01821B930B8617970777
:103DF00080F0AB014E5F5F4F8417950750F0420F84
:103E0000531F5093830740938207F9016193719385
:103E100002C0E0E0F0E0CF01DF91CF911F910F9160
:103E20000895CF93DF939C01009709F48FC0EC01B4
:103E300022971B821A826091840770918507611511
:103E4000710581F488819981820F931F20918207E7
:103E5000309183072817390739F5D0938307C0932A
:103E6000820774C0DB0140E050E0AC17BD0708F1E9
:103E7000BB83AA83FE0121913191E20FF31FAE179C
:103E8000BF0779F48D919C911197280F391F2E5FF0
:103E90003F4F3983288312968D919C9113979B8372
:103EA0008A834115510571F4D0938507C093840727
:103EB0004DC012968D919C911397AD01009711F012
:103EC000DC01D3CFDA011396DC93CE931297FA017B
:103ED00021913191E20FF31FCE17DF0769F488813A
:103EE0009981280F391F2E5F3F4FFA0131832083BC
:103EF0008A819B8193838283E0E0F0E0DB0112966C
:103F00008D919C911397009719F0BC01FD01F6CF9C
:103F1000AB014E5F5F4FDB018D919C91840F951F2C
:103F200020918207309183072817390779F4309759
:103F300029F4109285071092840702C0138212821E
:103F4000425050405093830740938207DF91CF91B6
:103F500008956F927F928F929F92AF92BF92CF926D
:103F6000DF92EF92FF920F931F93CF93DF938C0119
:103F7000009729F4CB010E94741E8C01BBC08EEF08
:103F8000E82E8FEFF82EE00EF11E4801860E971EE8
:103F90008E149F0408F4ACC0D7014D915C91119729
:103FA00046175707B8F04530510508F4A3C0CA01B9
:103FB00004978617970708F49DC042505040461B4F
:103FC000570BF401419351936D937C93CF010E9461
:103FD000111F90C05B01A41AB50A3801640E751E4A
:103FE000A0918407B0918507E0E0F0E0CC24DD24C7
:103FF00047C0A615B705A9F5CD91DC911197CE0163
:1040000002968A159B0568F1CE018A199B090296D2
:1040100012962C91129713963C91059758F0F40143
:1040200022833383CA19DB09D183C083D7016D93FF
:104030007C9309C04E5F5F4F4C0F5D1FF7015183AA
:104040004083C901FC01C114D10431F0D60113969B
:10405000FC93EE9312974EC0F0938507E09384078C
:1040600049C08D919C911197E817F90708F4FC015C
:104070006D0112968C91129713969C919C01D90117
:10408000109709F0B6CF809182079091830786152B
:104090009705E9F4E617F707D0F4209178033091FB
:1040A00079032115310541F42DB73EB78091740392
:1040B00090917503281B390B82169306C8F49092D1
:1040C000830780928207F7017183608313C0CB015D
:1040D0000E94741EEC01009759F0D7014D915C913C
:1040E000B8010E949205C8010E94111F8E0102C0F2
:1040F00000E010E0C801DF91CF911F910F91FF9078
:10410000EF90DF90CF90BF90AF909F908F907F9077
:104110006F900895FF920F931F93CF93DF93582FC3
:10412000162F042FE9018FEF96E0652F0E940318E8
:104130008FEF96E0612F0E94851810E0000F111F8D
:10414000FF2416C0EE0FFF1FEC0FFD1F61818FEFE4
:1041500096E00E948518F394EF2DF0E0EE0FFF1F1C
:10416000EC0FFD1F8FEF96E060810E948518F3949D
:10417000EF2DF0E0E017F1072CF38FEF96E00E94AF
:10418000C81890E0882309F491E0892FDF91CF913E
:104190001F910F91FF900895DF93CF930F920F928D
:1041A000CDB7DEB75A83498341E09E012F5F3F4F71
:1041B0000E948A200F900F90CF91DF910895EF9287
:1041C000FF920F931F93CF93DF93582F162FE42E58
:1041D000022FF32E8FEF96E0652F0E9403188FEFCA
:1041E00096E0612F0E948518202F3F2DC901EC0118
:1041F00010E006C08FEF96E069910E9485181F5F5E
:104200001E15C0F38FEF96E00E94C81890E0882337
:1042100009F491E0892FDF91CF911F910F91FF90C9
:10422000EF900895DF93CF930F92CDB7DEB7498318
:1042300041E09E012F5F3F4F0E94DF200F90CF9102
:10424000DF9108952F923F924F925F926F927F92EB
:104250008F929F92AF92BF92CF92DF92EF92FF9296
:104260000F931F93DF93CF9300D00F920F92CDB790
:10427000DEB7882E6983942E3B832A830E94AB1B72
:104280005B016C01FF24EE24292C332428016624D1
:1042900077244BC08FEF96E0682D0E9403188FEFB4
:1042A00096E069810E9485188FEF96E00E94C818F9
:1042B0008FEF96E0682D0E940318A1014E19510955
:1042C0004132510514F040E250E08FEF96E0682D46
:1042D0000E94D9182F2D332727FD30958A819B8185
:1042E000280F391F3D832C838FEF96E00E940D1815
:1042F000892B09F452C00115110561F00E94AB1B16
:104300006A197B098C099D09641575058605970551
:1043100008F043C08FEF96E00E941618EC81FD81F3
:104320008193FD83EC83F394DFCFE91408F4B2CFDB
:1043300001151105C9F00E94AB1B6A197B098C0994
:104340009D09980140E050E06217730784079507C4
:1043500058F02F2D332727FD3095892D90E0281711
:10436000390714F4FF24FA948F2D0F900F900F90BB
:104370000F900F90CF91DF911F910F91FF90EF90D1
:10438000DF90CF90BF90AF909F908F907F906F9075
:104390005F904F903F902F9008958FEF96E00E948E
:1043A000C818892DF0E2F91508F480E2E80EBDCFB7
:1043B0000F931F93FA01890141E09F010E9422217E
:1043C0001F910F910895DF92EF92FF920F931F9329
:1043D000DF93CF930F92CDB7DEB7E82ED62EF42E13
:1043E000122F20917A0330917B03AE014F5F5F4F14
:1043F0000E94D821882341F1212F30E04F2D50E039
:104400004F5F5F4F421B530B81E090E002C0880F6B
:10441000991F1A95E2F70197042E02C0880F991F81
:104420000A94E2F7202F30E002C0220F331F4A9592
:10443000E2F7482F4095598145238223482B498331
:104440008E2D6D2D0E9412210F90CF91DF911F9123
:104450000F91FF90EF90DF900895EF92FF920F93EE
:104460001F93DF93CF930F92CDB7DEB7F82EE62ED2
:10447000042F122F20917A0330917B03AE014F5FFE
:104480005F4F0E94D8212981112351F081E090E0F3
:1044900002C0880F991F0A95E2F7422F482B0AC0E5
:1044A00081E090E002C0880F991F0A95E2F7482F3B
:1044B0004095422349838F2D6E2D0E9412210F902B
:1044C000CF91DF911F910F91FF90EF900895CF92C0
:1044D000DF92EF92FF920F931F93DF93CF930F9290
:1044E000CDB7DEB7C42ED22E9701AE014F5F5F4F1E
:1044F0000E94D821682F882309F18D2D90E04C2D42
:1045000050E04F5F5F4F481B590B21E030E002C085
:10451000220F331FDA94E2F721503040042E02C0FC
:10452000220F331F0A94E2F78981822390E002C0B0
:10453000959587954A95E2F7F8018083862F0F902D
:10454000CF91DF911F910F91FF90EF90DF90CF906F
:104550000895DF92EF92FF920F931F93DF93CF9313
:104560000F92CDB7DEB7D42E79019801AE014F5F1F
:104570005F4F0E94D82121E030E002C0220F331F9C
:10458000DA94E2F799819223F70190830F90CF910B
:10459000DF911F910F91FF90EF90DF900895505899
:1045A000BB27AA270ED0D8C0C9D030F0CED020F07B
:1045B00031F49F3F11F41EF4BEC00EF4E095E7FB0A
:1045C000B4C0E92FDAD080F3BA1762077307840703
:1045D000950718F071F49EF5F2C00EF4E0950B2EDD
:1045E000BA2FA02D0B01B90190010C01CA01A00145
:1045F0001124FF27591B99F0593F50F4503E68F1A0
:104600001A16F040A22F232F342F4427585FF3CFE0
:10461000469537952795A795F0405395C9F77EF4B1
:104620001F16BA0B620B730B840BBAF09150A1F0FA
:10463000FF0FBB1F661F771F881FC2F70EC0BA0F80
:10464000621F731F841F48F4879577956795B79508
:10465000F7959E3F08F0B3CF9395880F08F0992700
:10466000EE0F979587950895E89409C097FB3EF45F
:1046700090958095709561957F4F8F4F9F4F9923AF
:10468000A9F0F92F96E9BB279395F695879577952D
:104690006795B795F111F8CFFAF4BB0F11F460FFED
:1046A0001BC06F5F7F4F8F4F9F4F16C0882311F045
:1046B00096E911C0772321F09EE8872F762F05C059
:1046C000662371F096E8862F70E060E02AF09A95F4
:1046D000660F771F881FDAF7880F9695879597F9E9
:1046E0000895990F0008550FAA0BE0E8FEEF161683
:1046F0001706E807F907C0F012161306E407F507D6
:1047000098F0621B730B840B950B39F40A2661F049
:10471000232B242B252B21F408950A2609F4A140EC
:10472000A6958FEF811D811D089597F99F6780E8F9
:1047300070E060E008959FEF80EC089500240A94F3
:104740001616170618060906089500240A9412166C
:104750001306140605060895092E0394000C11F49F
:10476000882352F0BB0F40F4BF2B11F460FF04C04C
:104770006F5F7F4F8F4F9F4F089557FD9058440FA5
:10478000551F59F05F3F71F04795880F97FB991FB0
:1047900061F09F3F79F0879508951216130614066D
:1047A000551FF2CF4695F1DF08C0161617061806FA
:1047B000991FF1CF86957105610508940895E894D5
:1047C000BB2766277727CB0197F908958ADF08F47E
:1047D0008FEF0895629FD001739FF001829FE00DDB
:1047E000F11D649FE00DF11D929FF00D839FF00D70
:1047F000749FF00D659FF00D9927729FB00DE11D1C
:10480000F91F639FB00DE11DF91FBD01CF011124F8
:10481000089597FB092E07260AD077FD04D02ED0E5
:1048200006D000201AF4709561957F4F0895F6F731
:10483000909581959F4F0895A1E21A2EAA1BBB1B4C
:10484000FD010DC0AA1FBB1FEE1FFF1FA217B3075C
:10485000E407F50720F0A21BB30BE40BF50B661F72
:10486000771F881F991F1A9469F760957095809536
:1048700090959B01AC01BD01CF010895AA1BBB1B04
:1048800051E107C0AA1FBB1FA617B70710F0A61B50
:10489000B70B881F991F5A95A9F780959095BC0171
:1048A000CD010895EE0FFF1F0590F491E02D1994AE
:0448B000F894FFCFAA
:1048B40046524F4E54002046003A20000A424143DB
:1048C4004B002042002000004C696E652074726128
:1048D40063696E6720697320656E61626C65642E1E
:1048E4002E004C696E652074726163696E6720697D
:1048F400732064697361626C65642E2E000A002063
:10490400796177203A2000207069746368203A2026
:104914000020726F6C6C203A2000526563656976E2
:10492400656420636D64733A2000496E697469613B
:104934006C697A696E6720493243206465766963DD
:104944006573A1A60054657374696E672064657607
:1049540069636520636F6E6E656374696F6E73A1BE
:10496400A6004D50553630353020636F6E6E65634A
:1049740074696F6E206661696C6564004D505536CC
:1049840030353020636F6E6E656374696F6E2073AB
:1049940075636365737366756C00496E69746961E8
:1049A4006C697A696E6720444D50A1A600456E611A
:1049B400626C696E6720444D50A1A600444D50209E
:1049C400496E697469616C697A6174696F6E206695
:1049D40061696C65642028636F6465200029007632
:1049E400000F000F0D0A2057656C636F6D65212061
:1049F40041726475696E6F204D6567610D0A2055BB
:104A040041525420546573742050726F6772616D03
:104A14002E0D0A001E001F0020002100220023008A
:104A240024002500800086070000E8034A004C00AB
:104A34005400820075007D00870043006A01BD01B7
:104A4400F401940261025402670261010000000053
:104A5400E8107B167E10AF108F10D81000000000F5
:0C4A6400851854180D1816182B183C1853
:040000050080040172
:00000001FF
